{
  "contracts/Router.sol": {
    "Router": {
      "abi": [
        {
          "inputs": [
            {
              "internalType": "address",
              "name": "tokenA",
              "type": "address"
            },
            {
              "internalType": "address",
              "name": "tokenB",
              "type": "address"
            },
            {
              "internalType": "uint256",
              "name": "amountADesired",
              "type": "uint256"
            },
            {
              "internalType": "uint256",
              "name": "amountBDesired",
              "type": "uint256"
            },
            {
              "internalType": "uint256",
              "name": "amountAMin",
              "type": "uint256"
            },
            {
              "internalType": "uint256",
              "name": "amountBMin",
              "type": "uint256"
            },
            {
              "internalType": "address",
              "name": "to",
              "type": "address"
            },
            {
              "internalType": "uint256",
              "name": "deadline",
              "type": "uint256"
            }
          ],
          "name": "addLiquidity",
          "outputs": [
            {
              "internalType": "uint256",
              "name": "amountA",
              "type": "uint256"
            },
            {
              "internalType": "uint256",
              "name": "amountB",
              "type": "uint256"
            },
            {
              "internalType": "uint256",
              "name": "liquidity",
              "type": "uint256"
            }
          ],
          "stateMutability": "nonpayable",
          "type": "function"
        },
        {
          "inputs": [
            {
              "internalType": "address",
              "name": "token",
              "type": "address"
            },
            {
              "internalType": "uint256",
              "name": "amountTokenDesired",
              "type": "uint256"
            },
            {
              "internalType": "uint256",
              "name": "amountTokenMin",
              "type": "uint256"
            },
            {
              "internalType": "uint256",
              "name": "amountETHMin",
              "type": "uint256"
            },
            {
              "internalType": "address",
              "name": "to",
              "type": "address"
            },
            {
              "internalType": "uint256",
              "name": "deadline",
              "type": "uint256"
            }
          ],
          "name": "addLiquidityETH",
          "outputs": [
            {
              "internalType": "uint256",
              "name": "amountToken",
              "type": "uint256"
            },
            {
              "internalType": "uint256",
              "name": "amountETH",
              "type": "uint256"
            },
            {
              "internalType": "uint256",
              "name": "liquidity",
              "type": "uint256"
            }
          ],
          "stateMutability": "payable",
          "type": "function"
        }
      ],
      "evm": {
        "bytecode": {
          "linkReferences": {},
          "object": "608060405234801561001057600080fd5b5061030e806100206000396000f3fe6080604052600436106100295760003560e01c8063e8e337001461002e578063f305d7191461006d575b600080fd5b34801561003a57600080fd5b50610055600480360381019061005091906100ed565b61009f565b60405161006493929190610237565b60405180910390f35b6100876004803603810190610082919061019f565b6100b2565b60405161009693929190610237565b60405180910390f35b6000806000985098509895505050505050565b600080600096509650969350505050565b6000813590506100d2816102aa565b92915050565b6000813590506100e7816102c1565b92915050565b600080600080600080600080610100898b03121561010a57600080fd5b60006101188b828c016100c3565b98505060206101298b828c016100c3565b975050604061013a8b828c016100d8565b965050606061014b8b828c016100d8565b955050608061015c8b828c016100d8565b94505060a061016d8b828c016100d8565b93505060c061017e8b828c016100c3565b92505060e061018f8b828c016100d8565b9150509295985092959890939650565b60008060008060008060c087890312156101b857600080fd5b60006101c689828a016100c3565b96505060206101d789828a016100d8565b95505060406101e889828a016100d8565b94505060606101f989828a016100d8565b935050608061020a89828a016100c3565b92505060a061021b89828a016100d8565b9150509295509295509295565b610231816102a0565b82525050565b600060608201905061024c6000830186610228565b6102596020830185610228565b6102666040830184610228565b949350505050565b600061027982610280565b9050919050565b600073ffffffffffffffffffffffffffffffffffffffff82169050919050565b6000819050919050565b6102b38161026e565b81146102be57600080fd5b50565b6102ca816102a0565b81146102d557600080fd5b5056fea26469706673582212203410bb80ff252ed398c916af5ca19cc417ff570cf32a22885dad2558192c311b64736f6c63430008040033",
          "opcodes": "PUSH1 0x80 PUSH1 0x40 MSTORE CALLVALUE DUP1 ISZERO PUSH2 0x10 JUMPI PUSH1 0x0 DUP1 REVERT JUMPDEST POP PUSH2 0x30E DUP1 PUSH2 0x20 PUSH1 0x0 CODECOPY PUSH1 0x0 RETURN INVALID PUSH1 0x80 PUSH1 0x40 MSTORE PUSH1 0x4 CALLDATASIZE LT PUSH2 0x29 JUMPI PUSH1 0x0 CALLDATALOAD PUSH1 0xE0 SHR DUP1 PUSH4 0xE8E33700 EQ PUSH2 0x2E JUMPI DUP1 PUSH4 0xF305D719 EQ PUSH2 0x6D JUMPI JUMPDEST PUSH1 0x0 DUP1 REVERT JUMPDEST CALLVALUE DUP1 ISZERO PUSH2 0x3A JUMPI PUSH1 0x0 DUP1 REVERT JUMPDEST POP PUSH2 0x55 PUSH1 0x4 DUP1 CALLDATASIZE SUB DUP2 ADD SWAP1 PUSH2 0x50 SWAP2 SWAP1 PUSH2 0xED JUMP JUMPDEST PUSH2 0x9F JUMP JUMPDEST PUSH1 0x40 MLOAD PUSH2 0x64 SWAP4 SWAP3 SWAP2 SWAP1 PUSH2 0x237 JUMP JUMPDEST PUSH1 0x40 MLOAD DUP1 SWAP2 SUB SWAP1 RETURN JUMPDEST PUSH2 0x87 PUSH1 0x4 DUP1 CALLDATASIZE SUB DUP2 ADD SWAP1 PUSH2 0x82 SWAP2 SWAP1 PUSH2 0x19F JUMP JUMPDEST PUSH2 0xB2 JUMP JUMPDEST PUSH1 0x40 MLOAD PUSH2 0x96 SWAP4 SWAP3 SWAP2 SWAP1 PUSH2 0x237 JUMP JUMPDEST PUSH1 0x40 MLOAD DUP1 SWAP2 SUB SWAP1 RETURN JUMPDEST PUSH1 0x0 DUP1 PUSH1 0x0 SWAP9 POP SWAP9 POP SWAP9 SWAP6 POP POP POP POP POP POP JUMP JUMPDEST PUSH1 0x0 DUP1 PUSH1 0x0 SWAP7 POP SWAP7 POP SWAP7 SWAP4 POP POP POP POP JUMP JUMPDEST PUSH1 0x0 DUP2 CALLDATALOAD SWAP1 POP PUSH2 0xD2 DUP2 PUSH2 0x2AA JUMP JUMPDEST SWAP3 SWAP2 POP POP JUMP JUMPDEST PUSH1 0x0 DUP2 CALLDATALOAD SWAP1 POP PUSH2 0xE7 DUP2 PUSH2 0x2C1 JUMP JUMPDEST SWAP3 SWAP2 POP POP JUMP JUMPDEST PUSH1 0x0 DUP1 PUSH1 0x0 DUP1 PUSH1 0x0 DUP1 PUSH1 0x0 DUP1 PUSH2 0x100 DUP10 DUP12 SUB SLT ISZERO PUSH2 0x10A JUMPI PUSH1 0x0 DUP1 REVERT JUMPDEST PUSH1 0x0 PUSH2 0x118 DUP12 DUP3 DUP13 ADD PUSH2 0xC3 JUMP JUMPDEST SWAP9 POP POP PUSH1 0x20 PUSH2 0x129 DUP12 DUP3 DUP13 ADD PUSH2 0xC3 JUMP JUMPDEST SWAP8 POP POP PUSH1 0x40 PUSH2 0x13A DUP12 DUP3 DUP13 ADD PUSH2 0xD8 JUMP JUMPDEST SWAP7 POP POP PUSH1 0x60 PUSH2 0x14B DUP12 DUP3 DUP13 ADD PUSH2 0xD8 JUMP JUMPDEST SWAP6 POP POP PUSH1 0x80 PUSH2 0x15C DUP12 DUP3 DUP13 ADD PUSH2 0xD8 JUMP JUMPDEST SWAP5 POP POP PUSH1 0xA0 PUSH2 0x16D DUP12 DUP3 DUP13 ADD PUSH2 0xD8 JUMP JUMPDEST SWAP4 POP POP PUSH1 0xC0 PUSH2 0x17E DUP12 DUP3 DUP13 ADD PUSH2 0xC3 JUMP JUMPDEST SWAP3 POP POP PUSH1 0xE0 PUSH2 0x18F DUP12 DUP3 DUP13 ADD PUSH2 0xD8 JUMP JUMPDEST SWAP2 POP POP SWAP3 SWAP6 SWAP9 POP SWAP3 SWAP6 SWAP9 SWAP1 SWAP4 SWAP7 POP JUMP JUMPDEST PUSH1 0x0 DUP1 PUSH1 0x0 DUP1 PUSH1 0x0 DUP1 PUSH1 0xC0 DUP8 DUP10 SUB SLT ISZERO PUSH2 0x1B8 JUMPI PUSH1 0x0 DUP1 REVERT JUMPDEST PUSH1 0x0 PUSH2 0x1C6 DUP10 DUP3 DUP11 ADD PUSH2 0xC3 JUMP JUMPDEST SWAP7 POP POP PUSH1 0x20 PUSH2 0x1D7 DUP10 DUP3 DUP11 ADD PUSH2 0xD8 JUMP JUMPDEST SWAP6 POP POP PUSH1 0x40 PUSH2 0x1E8 DUP10 DUP3 DUP11 ADD PUSH2 0xD8 JUMP JUMPDEST SWAP5 POP POP PUSH1 0x60 PUSH2 0x1F9 DUP10 DUP3 DUP11 ADD PUSH2 0xD8 JUMP JUMPDEST SWAP4 POP POP PUSH1 0x80 PUSH2 0x20A DUP10 DUP3 DUP11 ADD PUSH2 0xC3 JUMP JUMPDEST SWAP3 POP POP PUSH1 0xA0 PUSH2 0x21B DUP10 DUP3 DUP11 ADD PUSH2 0xD8 JUMP JUMPDEST SWAP2 POP POP SWAP3 SWAP6 POP SWAP3 SWAP6 POP SWAP3 SWAP6 JUMP JUMPDEST PUSH2 0x231 DUP2 PUSH2 0x2A0 JUMP JUMPDEST DUP3 MSTORE POP POP JUMP JUMPDEST PUSH1 0x0 PUSH1 0x60 DUP3 ADD SWAP1 POP PUSH2 0x24C PUSH1 0x0 DUP4 ADD DUP7 PUSH2 0x228 JUMP JUMPDEST PUSH2 0x259 PUSH1 0x20 DUP4 ADD DUP6 PUSH2 0x228 JUMP JUMPDEST PUSH2 0x266 PUSH1 0x40 DUP4 ADD DUP5 PUSH2 0x228 JUMP JUMPDEST SWAP5 SWAP4 POP POP POP POP JUMP JUMPDEST PUSH1 0x0 PUSH2 0x279 DUP3 PUSH2 0x280 JUMP JUMPDEST SWAP1 POP SWAP2 SWAP1 POP JUMP JUMPDEST PUSH1 0x0 PUSH20 0xFFFFFFFFFFFFFFFFFFFFFFFFFFFFFFFFFFFFFFFF DUP3 AND SWAP1 POP SWAP2 SWAP1 POP JUMP JUMPDEST PUSH1 0x0 DUP2 SWAP1 POP SWAP2 SWAP1 POP JUMP JUMPDEST PUSH2 0x2B3 DUP2 PUSH2 0x26E JUMP JUMPDEST DUP2 EQ PUSH2 0x2BE JUMPI PUSH1 0x0 DUP1 REVERT JUMPDEST POP JUMP JUMPDEST PUSH2 0x2CA DUP2 PUSH2 0x2A0 JUMP JUMPDEST DUP2 EQ PUSH2 0x2D5 JUMPI PUSH1 0x0 DUP1 REVERT JUMPDEST POP JUMP INVALID LOG2 PUSH5 0x6970667358 0x22 SLT KECCAK256 CALLVALUE LT 0xBB DUP1 SELFDESTRUCT 0x25 0x2E 0xD3 SWAP9 0xC9 AND 0xAF 0x5C LOG1 SWAP13 0xC4 OR SELFDESTRUCT JUMPI 0xC RETURN 0x2A 0x22 DUP9 0x5D 0xAD 0x25 PC NOT 0x2C BALANCE SHL PUSH5 0x736F6C6343 STOP ADDMOD DIV STOP CALLER "
        },
        "methodIdentifiers": {
          "addLiquidity(address,address,uint256,uint256,uint256,uint256,address,uint256)": "e8e33700",
          "addLiquidityETH(address,uint256,uint256,uint256,address,uint256)": "f305d719"
        }
      }
    }
  }
}