{
  "_format": "hh-sol-artifact-1",
  "contractName": "Factory",
  "sourceName": "contracts/Factory.sol",
  "abi": [
    {
      "inputs": [
        {
          "internalType": "address",
          "name": "tokenA",
          "type": "address"
        },
        {
          "internalType": "address",
          "name": "tokenB",
          "type": "address"
        }
      ],
      "name": "createPair",
      "outputs": [
        {
          "internalType": "address",
          "name": "pair",
          "type": "address"
        }
      ],
      "stateMutability": "nonpayable",
      "type": "function"
    },
    {
      "inputs": [
        {
          "internalType": "address",
          "name": "tokenA",
          "type": "address"
        },
        {
          "internalType": "address",
          "name": "tokenB",
          "type": "address"
        }
      ],
      "name": "getPair",
      "outputs": [
        {
          "internalType": "address",
          "name": "pair",
          "type": "address"
        }
      ],
      "stateMutability": "view",
      "type": "function"
    }
  ],
  "bytecode": "0x608060405234801561001057600080fd5b506101a5806100206000396000f3fe608060405234801561001057600080fd5b50600436106100365760003560e01c8063c9c653961461003b578063e6a439051461006b575b600080fd5b610055600480360381019061005091906100c0565b61009b565b604051610062919061010b565b60405180910390f35b610085600480360381019061008091906100c0565b6100a3565b604051610092919061010b565b60405180910390f35b600092915050565b600092915050565b6000813590506100ba81610158565b92915050565b600080604083850312156100d357600080fd5b60006100e1858286016100ab565b92505060206100f2858286016100ab565b9150509250929050565b61010581610126565b82525050565b600060208201905061012060008301846100fc565b92915050565b600061013182610138565b9050919050565b600073ffffffffffffffffffffffffffffffffffffffff82169050919050565b61016181610126565b811461016c57600080fd5b5056fea26469706673582212200c229df506cf1f61f2a49fa4f0edf5ef023d4ade59dbef0172befb3a43e8791264736f6c63430008040033",
  "linkReferences": {},
  "deployedLinkReferences": {}
}