{
  "_format": "hh-sol-artifact-1",
  "contractName": "Router",
  "sourceName": "contracts/Router.sol",
  "abi": [
    {
      "inputs": [
        {
          "internalType": "address",
          "name": "tokenA",
          "type": "address"
        },
        {
          "internalType": "address",
          "name": "tokenB",
          "type": "address"
        },
        {
          "internalType": "uint256",
          "name": "amountADesired",
          "type": "uint256"
        },
        {
          "internalType": "uint256",
          "name": "amountBDesired",
          "type": "uint256"
        },
        {
          "internalType": "uint256",
          "name": "amountAMin",
          "type": "uint256"
        },
        {
          "internalType": "uint256",
          "name": "amountBMin",
          "type": "uint256"
        },
        {
          "internalType": "address",
          "name": "to",
          "type": "address"
        },
        {
          "internalType": "uint256",
          "name": "deadline",
          "type": "uint256"
        }
      ],
      "name": "addLiquidity",
      "outputs": [
        {
          "internalType": "uint256",
          "name": "amountA",
          "type": "uint256"
        },
        {
          "internalType": "uint256",
          "name": "amountB",
          "type": "uint256"
        },
        {
          "internalType": "uint256",
          "name": "liquidity",
          "type": "uint256"
        }
      ],
      "stateMutability": "nonpayable",
      "type": "function"
    },
    {
      "inputs": [
        {
          "internalType": "address",
          "name": "token",
          "type": "address"
        },
        {
          "internalType": "uint256",
          "name": "amountTokenDesired",
          "type": "uint256"
        },
        {
          "internalType": "uint256",
          "name": "amountTokenMin",
          "type": "uint256"
        },
        {
          "internalType": "uint256",
          "name": "amountETHMin",
          "type": "uint256"
        },
        {
          "internalType": "address",
          "name": "to",
          "type": "address"
        },
        {
          "internalType": "uint256",
          "name": "deadline",
          "type": "uint256"
        }
      ],
      "name": "addLiquidityETH",
      "outputs": [
        {
          "internalType": "uint256",
          "name": "amountToken",
          "type": "uint256"
        },
        {
          "internalType": "uint256",
          "name": "amountETH",
          "type": "uint256"
        },
        {
          "internalType": "uint256",
          "name": "liquidity",
          "type": "uint256"
        }
      ],
      "stateMutability": "payable",
      "type": "function"
    }
  ],
  "bytecode": "0x608060405234801561001057600080fd5b5061030e806100206000396000f3fe6080604052600436106100295760003560e01c8063e8e337001461002e578063f305d7191461006d575b600080fd5b34801561003a57600080fd5b50610055600480360381019061005091906100ed565b61009f565b60405161006493929190610237565b60405180910390f35b6100876004803603810190610082919061019f565b6100b2565b60405161009693929190610237565b60405180910390f35b6000806000985098509895505050505050565b600080600096509650969350505050565b6000813590506100d2816102aa565b92915050565b6000813590506100e7816102c1565b92915050565b600080600080600080600080610100898b03121561010a57600080fd5b60006101188b828c016100c3565b98505060206101298b828c016100c3565b975050604061013a8b828c016100d8565b965050606061014b8b828c016100d8565b955050608061015c8b828c016100d8565b94505060a061016d8b828c016100d8565b93505060c061017e8b828c016100c3565b92505060e061018f8b828c016100d8565b9150509295985092959890939650565b60008060008060008060c087890312156101b857600080fd5b60006101c689828a016100c3565b96505060206101d789828a016100d8565b95505060406101e889828a016100d8565b94505060606101f989828a016100d8565b935050608061020a89828a016100c3565b92505060a061021b89828a016100d8565b9150509295509295509295565b610231816102a0565b82525050565b600060608201905061024c6000830186610228565b6102596020830185610228565b6102666040830184610228565b949350505050565b600061027982610280565b9050919050565b600073ffffffffffffffffffffffffffffffffffffffff82169050919050565b6000819050919050565b6102b38161026e565b81146102be57600080fd5b50565b6102ca816102a0565b81146102d557600080fd5b5056fea26469706673582212203410bb80ff252ed398c916af5ca19cc417ff570cf32a22885dad2558192c311b64736f6c63430008040033",
  "linkReferences": {},
  "deployedLinkReferences": {}
}